{
  "contractName": "Pool",
  "abi": [
    {
      "constant": false,
      "inputs": [
        {
          "name": "_token0",
          "type": "address"
        },
        {
          "name": "_token1",
          "type": "address"
        },
        {
          "name": "_dex",
          "type": "address"
        },
        {
          "name": "whichP",
          "type": "uint256"
        },
        {
          "name": "_tickerQ",
          "type": "bytes32"
        },
        {
          "name": "_tickerT",
          "type": "bytes32"
        }
      ],
      "name": "initialize",
      "outputs": [],
      "payable": false,
      "stateMutability": "nonpayable",
      "type": "function"
    },
    {
      "constant": false,
      "inputs": [
        {
          "name": "tokenAmount",
          "type": "uint256"
        },
        {
          "name": "pineAmount",
          "type": "uint256"
        }
      ],
      "name": "deposit",
      "outputs": [],
      "payable": false,
      "stateMutability": "nonpayable",
      "type": "function"
    },
    {
      "constant": false,
      "inputs": [
        {
          "name": "tokenAmount",
          "type": "uint256"
        },
        {
          "name": "pineAmount",
          "type": "uint256"
        }
      ],
      "name": "withdraw",
      "outputs": [],
      "payable": false,
      "stateMutability": "nonpayable",
      "type": "function"
    },
    {
      "constant": true,
      "inputs": [
        {
          "name": "testMe",
          "type": "uint256"
        }
      ],
      "name": "testing",
      "outputs": [
        {
          "name": "",
          "type": "uint256"
        }
      ],
      "payable": false,
      "stateMutability": "view",
      "type": "function"
    }
  ],
  "bytecode": "0x60806040526000600555600060065534801561001a57600080fd5b5061032c8061002a6000396000f3fe608060405234801561001057600080fd5b506004361061004c5760003560e01c8063441a3e70146100515780636c30f765146100895780636ea47fad146100cb578063e2bbb1581461016d575b600080fd5b6100876004803603604081101561006757600080fd5b8101908080359060200190929190803590602001909291905050506101a5565b005b6100b56004803603602081101561009f57600080fd5b81019080803590602001909291905050506101c9565b6040518082815260200191505060405180910390f35b61016b600480360360c08110156100e157600080fd5b81019080803573ffffffffffffffffffffffffffffffffffffffff169060200190929190803573ffffffffffffffffffffffffffffffffffffffff169060200190929190803573ffffffffffffffffffffffffffffffffffffffff1690602001909291908035906020019092919080359060200190929190803590602001909291905050506101e7565b005b6101a36004803603604081101561018357600080fd5b8101908080359060200190929190803590602001909291905050506102dc565b005b80600560008282540392505081905550816006600082825403925050819055505050565b600060018214156101dd57600590506101e2565b600390505b919050565b856000806101000a81548173ffffffffffffffffffffffffffffffffffffffff021916908373ffffffffffffffffffffffffffffffffffffffff16021790555084600160006101000a81548173ffffffffffffffffffffffffffffffffffffffff021916908373ffffffffffffffffffffffffffffffffffffffff16021790555083600260006101000a81548173ffffffffffffffffffffffffffffffffffffffff021916908373ffffffffffffffffffffffffffffffffffffffff16021790555060008314156102c55781600381905550806004819055506102d4565b80600381905550816004819055505b505050505050565b8060056000828254019250508190555081600660008282540192505081905550505056fea165627a7a7230582032524b9c9d4a28305b4c5aea30ba1a32a77a3d59108c13d15dc19f94e3956c750029",
  "source": "pragma solidity 0.5.3;\n\nimport './Exc.sol';\n// import \"https://github.com/OpenZeppelin/openzeppelin-contracts/blob/solc-0.6/contracts/math/SafeMath.sol\";\nimport '../contracts/libraries/math/SafeMath.sol';\n\ncontract Pool {\n    \n    /// @notice some parameters for the pool to function correctly, feel free to add more as needed\n    address private tokenP;\n    address private token1;\n    address private dex;\n    bytes32 private tokenPT;\n    bytes32 private token1T;\n    \n    // todo: create wallet data structures\n    uint pineBalance = 0;\n    uint tokenBalance = 0;\n    \n    \n    // todo: fill in the initialize method, which should simply set the parameters of the contract correctly. To be called once\n    // upon deployment by the factory.\n    function initialize(address _token0, address _token1, address _dex, uint whichP, bytes32 _tickerQ, bytes32 _tickerT)\n    external {\n        tokenP = _token0;\n        token1 = _token1;\n        dex = _dex;\n        \n        if (whichP == 0) {\n            tokenPT = _tickerQ;\n            token1T = _tickerT;\n        } else {\n            tokenPT = _tickerT;\n            token1T = _tickerQ;\n        }\n        \n    }\n    \n    // todo: implement wallet functionality and trading functionality\n\n    // todo: implement withdraw and deposit functions so that a single deposit and a single withdraw can unstake\n    // both tokens at the same time\n    function deposit(uint tokenAmount, uint pineAmount) external {\n        pineBalance += pineAmount;\n        tokenBalance += tokenAmount;\n    }\n\n    function withdraw(uint tokenAmount, uint pineAmount) external {\n        pineBalance -= pineAmount;\n        tokenBalance -= tokenAmount;\n    }\n    \n    \n    function testing(uint testMe) public view returns (uint) {\n        if (testMe == 1) {\n            return 5;\n        } else {\n            return 3;\n        }\n    }\n}",
  "sourcePath": "/Users/naveen/cs1951l/Redwood/contracts/Pool.sol",
  "compiler": {
    "name": "solc",
    "version": "0.5.3+commit.10d17f24.Emscripten.clang"
  },
  "schemaVersion": "3.4.2",
  "updatedAt": "2021-08-05T01:06:02.167Z",
  "devdoc": {
    "methods": {}
  },
  "userdoc": {
    "methods": {}
  }
}