{
  "contractName": "Pool",
  "abi": [
    {
      "anonymous": false,
      "inputs": [
        {
          "indexed": false,
          "name": "text",
          "type": "string"
        }
      ],
      "name": "Debug",
      "type": "event"
    },
    {
      "constant": false,
      "inputs": [
        {
          "name": "_token0",
          "type": "address"
        },
        {
          "name": "_token1",
          "type": "address"
        },
        {
          "name": "_dex",
          "type": "address"
        },
        {
          "name": "whichP",
          "type": "uint256"
        },
        {
          "name": "_tickerQ",
          "type": "bytes32"
        },
        {
          "name": "_tickerT",
          "type": "bytes32"
        }
      ],
      "name": "initialize",
      "outputs": [],
      "payable": false,
      "stateMutability": "nonpayable",
      "type": "function"
    },
    {
      "constant": false,
      "inputs": [
        {
          "name": "tokenAmount",
          "type": "uint256"
        },
        {
          "name": "pineAmount",
          "type": "uint256"
        }
      ],
      "name": "deposit",
      "outputs": [],
      "payable": false,
      "stateMutability": "nonpayable",
      "type": "function"
    },
    {
      "constant": false,
      "inputs": [
        {
          "name": "tokenAmount",
          "type": "uint256"
        },
        {
          "name": "pineAmount",
          "type": "uint256"
        }
      ],
      "name": "withdraw",
      "outputs": [],
      "payable": false,
      "stateMutability": "nonpayable",
      "type": "function"
    },
    {
      "constant": true,
      "inputs": [
        {
          "name": "testMe",
          "type": "uint256"
        }
      ],
      "name": "testing",
      "outputs": [
        {
          "name": "",
          "type": "uint256"
        }
      ],
      "payable": false,
      "stateMutability": "view",
      "type": "function"
    }
  ],
  "bytecode": "0x6080604052600060055560006006556000600760006101000a81548160ff0219169083151502179055506000600855600060095534801561003f57600080fd5b506122148061004f6000396000f3fe608060405234801561001057600080fd5b506004361061004c5760003560e01c8063441a3e70146100515780636c30f765146100895780636ea47fad146100cb578063e2bbb1581461016d575b600080fd5b6100876004803603604081101561006757600080fd5b8101908080359060200190929190803590602001909291905050506101a5565b005b6100b56004803603602081101561009f57600080fd5b8101908080359060200190929190505050610ea3565b6040518082815260200191505060405180910390f35b61016b600480360360c08110156100e157600080fd5b81019080803573ffffffffffffffffffffffffffffffffffffffff169060200190929190803573ffffffffffffffffffffffffffffffffffffffff169060200190929190803573ffffffffffffffffffffffffffffffffffffffff169060200190929190803590602001909291908035906020019092919080359060200190929190505050610ec1565b005b6101a36004803603604081101561018357600080fd5b8101908080359060200190929190803590602001909291905050506111f2565b005b600260009054906101000a900473ffffffffffffffffffffffffffffffffffffffff1673ffffffffffffffffffffffffffffffffffffffff166372ce957e306003546040518363ffffffff1660e01b8152600401808373ffffffffffffffffffffffffffffffffffffffff1673ffffffffffffffffffffffffffffffffffffffff1681526020018281526020019250505060206040518083038186803b15801561024e57600080fd5b505afa158015610262573d6000803e3d6000fd5b505050506040513d602081101561027857600080fd5b8101908080519060200190929190505050600581905550600260009054906101000a900473ffffffffffffffffffffffffffffffffffffffff1673ffffffffffffffffffffffffffffffffffffffff166372ce957e306004546040518363ffffffff1660e01b8152600401808373ffffffffffffffffffffffffffffffffffffffff1673ffffffffffffffffffffffffffffffffffffffff1681526020018281526020019250505060206040518083038186803b15801561033857600080fd5b505afa15801561034c573d6000803e3d6000fd5b505050506040513d602081101561036257600080fd5b8101908080519060200190929190505050600681905550806005541015801561038d57508160065410155b15610e375761039e60055482611f3e565b6006819055506103b060065483611f3e565b600681905550600160009054906101000a900473ffffffffffffffffffffffffffffffffffffffff1673ffffffffffffffffffffffffffffffffffffffff1663095ea7b3600260009054906101000a900473ffffffffffffffffffffffffffffffffffffffff16846040518363ffffffff1660e01b8152600401808373ffffffffffffffffffffffffffffffffffffffff1673ffffffffffffffffffffffffffffffffffffffff16815260200182815260200192505050602060405180830381600087803b15801561048157600080fd5b505af1158015610495573d6000803e3d6000fd5b505050506040513d60208110156104ab57600080fd5b8101908080519060200190929190505050506000809054906101000a900473ffffffffffffffffffffffffffffffffffffffff1673ffffffffffffffffffffffffffffffffffffffff1663095ea7b3600260009054906101000a900473ffffffffffffffffffffffffffffffffffffffff16836040518363ffffffff1660e01b8152600401808373ffffffffffffffffffffffffffffffffffffffff1673ffffffffffffffffffffffffffffffffffffffff16815260200182815260200192505050602060405180830381600087803b15801561058757600080fd5b505af115801561059b573d6000803e3d6000fd5b505050506040513d60208110156105b157600080fd5b810190808051906020019092919050505050600260009054906101000a900473ffffffffffffffffffffffffffffffffffffffff1673ffffffffffffffffffffffffffffffffffffffff1663a8d2021a836004546040518363ffffffff1660e01b81526004018083815260200182815260200192505050600060405180830381600087803b15801561064257600080fd5b505af1158015610656573d6000803e3d6000fd5b50505050600260009054906101000a900473ffffffffffffffffffffffffffffffffffffffff1673ffffffffffffffffffffffffffffffffffffffff1663a8d2021a826003546040518363ffffffff1660e01b81526004018083815260200182815260200192505050600060405180830381600087803b1580156106d957600080fd5b505af11580156106ed573d6000803e3d6000fd5b505050506000610701600554600654611f88565b905060001515600760009054906101000a900460ff161515141561090157600260009054906101000a900473ffffffffffffffffffffffffffffffffffffffff1673ffffffffffffffffffffffffffffffffffffffff1663da28bd5c6004546006548460006040518563ffffffff1660e01b81526004018085815260200184815260200183815260200182600181111561079757fe5b60ff168152602001945050505050602060405180830381600087803b1580156107bf57600080fd5b505af11580156107d3573d6000803e3d6000fd5b505050506040513d60208110156107e957600080fd5b8101908080519060200190929190505050600881905550600260009054906101000a900473ffffffffffffffffffffffffffffffffffffffff1673ffffffffffffffffffffffffffffffffffffffff1663da28bd5c6004546006548460016040518563ffffffff1660e01b81526004018085815260200184815260200183815260200182600181111561087857fe5b60ff168152602001945050505050602060405180830381600087803b1580156108a057600080fd5b505af11580156108b4573d6000803e3d6000fd5b505050506040513d60208110156108ca57600080fd5b81019080805190602001909291905050506009819055506001600760006101000a81548160ff021916908315150217905550610c6c565b600260009054906101000a900473ffffffffffffffffffffffffffffffffffffffff1673ffffffffffffffffffffffffffffffffffffffff166317aa080c60085460045460006040518463ffffffff1660e01b81526004018084815260200183815260200182600181111561097257fe5b60ff1681526020019350505050602060405180830381600087803b15801561099957600080fd5b505af11580156109ad573d6000803e3d6000fd5b505050506040513d60208110156109c357600080fd5b810190808051906020019092919050505050600260009054906101000a900473ffffffffffffffffffffffffffffffffffffffff1673ffffffffffffffffffffffffffffffffffffffff166317aa080c60095460045460016040518463ffffffff1660e01b815260040180848152602001838152602001826001811115610a4657fe5b60ff1681526020019350505050602060405180830381600087803b158015610a6d57600080fd5b505af1158015610a81573d6000803e3d6000fd5b505050506040513d6020811015610a9757600080fd5b810190808051906020019092919050505050600260009054906101000a900473ffffffffffffffffffffffffffffffffffffffff1673ffffffffffffffffffffffffffffffffffffffff1663da28bd5c6004546006548460006040518563ffffffff1660e01b815260040180858152602001848152602001838152602001826001811115610b2157fe5b60ff168152602001945050505050602060405180830381600087803b158015610b4957600080fd5b505af1158015610b5d573d6000803e3d6000fd5b505050506040513d6020811015610b7357600080fd5b8101908080519060200190929190505050600881905550600260009054906101000a900473ffffffffffffffffffffffffffffffffffffffff1673ffffffffffffffffffffffffffffffffffffffff1663da28bd5c6004546006548460016040518563ffffffff1660e01b815260040180858152602001848152602001838152602001826001811115610c0257fe5b60ff168152602001945050505050602060405180830381600087803b158015610c2a57600080fd5b505af1158015610c3e573d6000803e3d6000fd5b505050506040513d6020811015610c5457600080fd5b81019080805190602001909291905050506009819055505b600160009054906101000a900473ffffffffffffffffffffffffffffffffffffffff1673ffffffffffffffffffffffffffffffffffffffff1663a9059cbb33856040518363ffffffff1660e01b8152600401808373ffffffffffffffffffffffffffffffffffffffff1673ffffffffffffffffffffffffffffffffffffffff16815260200182815260200192505050602060405180830381600087803b158015610d1557600080fd5b505af1158015610d29573d6000803e3d6000fd5b505050506040513d6020811015610d3f57600080fd5b8101908080519060200190929190505050506000809054906101000a900473ffffffffffffffffffffffffffffffffffffffff1673ffffffffffffffffffffffffffffffffffffffff1663a9059cbb33846040518363ffffffff1660e01b8152600401808373ffffffffffffffffffffffffffffffffffffffff1673ffffffffffffffffffffffffffffffffffffffff16815260200182815260200192505050602060405180830381600087803b158015610df957600080fd5b505af1158015610e0d573d6000803e3d6000fd5b505050506040513d6020811015610e2357600080fd5b810190808051906020019092919050505050505b7f7cdb51e9dbbc205231228146c3246e7f914aa6d4a33170e43ecc8e3593481d1a60405180806020018281038252600b8152602001807f776974686472657721212100000000000000000000000000000000000000000081525060200191505060405180910390a15050565b60006001821415610eb75760059050610ebc565b600390505b919050565b83600260006101000a81548173ffffffffffffffffffffffffffffffffffffffff021916908373ffffffffffffffffffffffffffffffffffffffff1602179055506001831415610f9157856000806101000a81548173ffffffffffffffffffffffffffffffffffffffff021916908373ffffffffffffffffffffffffffffffffffffffff16021790555084600160006101000a81548173ffffffffffffffffffffffffffffffffffffffff021916908373ffffffffffffffffffffffffffffffffffffffff160217905550611013565b846000806101000a81548173ffffffffffffffffffffffffffffffffffffffff021916908373ffffffffffffffffffffffffffffffffffffffff16021790555085600160006101000a81548173ffffffffffffffffffffffffffffffffffffffff021916908373ffffffffffffffffffffffffffffffffffffffff1602179055505b8160038190555080600481905550600260009054906101000a900473ffffffffffffffffffffffffffffffffffffffff1673ffffffffffffffffffffffffffffffffffffffff16639776aacf600454600160009054906101000a900473ffffffffffffffffffffffffffffffffffffffff166040518363ffffffff1660e01b8152600401808381526020018273ffffffffffffffffffffffffffffffffffffffff1673ffffffffffffffffffffffffffffffffffffffff16815260200192505050600060405180830381600087803b1580156110ee57600080fd5b505af1158015611102573d6000803e3d6000fd5b50505050600260009054906101000a900473ffffffffffffffffffffffffffffffffffffffff1673ffffffffffffffffffffffffffffffffffffffff16639776aacf6003546000809054906101000a900473ffffffffffffffffffffffffffffffffffffffff166040518363ffffffff1660e01b8152600401808381526020018273ffffffffffffffffffffffffffffffffffffffff1673ffffffffffffffffffffffffffffffffffffffff16815260200192505050600060405180830381600087803b1580156111d257600080fd5b505af11580156111e6573d6000803e3d6000fd5b50505050505050505050565b600260009054906101000a900473ffffffffffffffffffffffffffffffffffffffff1673ffffffffffffffffffffffffffffffffffffffff166372ce957e306003546040518363ffffffff1660e01b8152600401808373ffffffffffffffffffffffffffffffffffffffff1673ffffffffffffffffffffffffffffffffffffffff1681526020018281526020019250505060206040518083038186803b15801561129b57600080fd5b505afa1580156112af573d6000803e3d6000fd5b505050506040513d60208110156112c557600080fd5b8101908080519060200190929190505050600581905550600260009054906101000a900473ffffffffffffffffffffffffffffffffffffffff1673ffffffffffffffffffffffffffffffffffffffff166372ce957e306004546040518363ffffffff1660e01b8152600401808373ffffffffffffffffffffffffffffffffffffffff1673ffffffffffffffffffffffffffffffffffffffff1681526020018281526020019250505060206040518083038186803b15801561138557600080fd5b505afa158015611399573d6000803e3d6000fd5b505050506040513d60208110156113af57600080fd5b81019080805190602001909291905050506006819055506113d260055482611fd2565b6005819055506113e460065483611fd2565b600681905550600160009054906101000a900473ffffffffffffffffffffffffffffffffffffffff1673ffffffffffffffffffffffffffffffffffffffff166323b872dd3330856040518463ffffffff1660e01b8152600401808473ffffffffffffffffffffffffffffffffffffffff1673ffffffffffffffffffffffffffffffffffffffff1681526020018373ffffffffffffffffffffffffffffffffffffffff1673ffffffffffffffffffffffffffffffffffffffff1681526020018281526020019350505050602060405180830381600087803b1580156114c757600080fd5b505af11580156114db573d6000803e3d6000fd5b505050506040513d60208110156114f157600080fd5b8101908080519060200190929190505050506000809054906101000a900473ffffffffffffffffffffffffffffffffffffffff1673ffffffffffffffffffffffffffffffffffffffff166323b872dd3330846040518463ffffffff1660e01b8152600401808473ffffffffffffffffffffffffffffffffffffffff1673ffffffffffffffffffffffffffffffffffffffff1681526020018373ffffffffffffffffffffffffffffffffffffffff1673ffffffffffffffffffffffffffffffffffffffff1681526020018281526020019350505050602060405180830381600087803b1580156115df57600080fd5b505af11580156115f3573d6000803e3d6000fd5b505050506040513d602081101561160957600080fd5b810190808051906020019092919050505050600160009054906101000a900473ffffffffffffffffffffffffffffffffffffffff1673ffffffffffffffffffffffffffffffffffffffff1663095ea7b3600260009054906101000a900473ffffffffffffffffffffffffffffffffffffffff16846040518363ffffffff1660e01b8152600401808373ffffffffffffffffffffffffffffffffffffffff1673ffffffffffffffffffffffffffffffffffffffff16815260200182815260200192505050602060405180830381600087803b1580156116e657600080fd5b505af11580156116fa573d6000803e3d6000fd5b505050506040513d602081101561171057600080fd5b8101908080519060200190929190505050506000809054906101000a900473ffffffffffffffffffffffffffffffffffffffff1673ffffffffffffffffffffffffffffffffffffffff1663095ea7b3600260009054906101000a900473ffffffffffffffffffffffffffffffffffffffff16836040518363ffffffff1660e01b8152600401808373ffffffffffffffffffffffffffffffffffffffff1673ffffffffffffffffffffffffffffffffffffffff16815260200182815260200192505050602060405180830381600087803b1580156117ec57600080fd5b505af1158015611800573d6000803e3d6000fd5b505050506040513d602081101561181657600080fd5b810190808051906020019092919050505050600260009054906101000a900473ffffffffffffffffffffffffffffffffffffffff1673ffffffffffffffffffffffffffffffffffffffff1663c9630cb0836004546040518363ffffffff1660e01b81526004018083815260200182815260200192505050600060405180830381600087803b1580156118a757600080fd5b505af11580156118bb573d6000803e3d6000fd5b50505050600260009054906101000a900473ffffffffffffffffffffffffffffffffffffffff1673ffffffffffffffffffffffffffffffffffffffff1663c9630cb0826003546040518363ffffffff1660e01b81526004018083815260200182815260200192505050600060405180830381600087803b15801561193e57600080fd5b505af1158015611952573d6000803e3d6000fd5b505050506000611966600554600654611f88565b905060001515600760009054906101000a900460ff1615151415611b6657600260009054906101000a900473ffffffffffffffffffffffffffffffffffffffff1673ffffffffffffffffffffffffffffffffffffffff1663da28bd5c6004546006548460006040518563ffffffff1660e01b8152600401808581526020018481526020018381526020018260018111156119fc57fe5b60ff168152602001945050505050602060405180830381600087803b158015611a2457600080fd5b505af1158015611a38573d6000803e3d6000fd5b505050506040513d6020811015611a4e57600080fd5b8101908080519060200190929190505050600881905550600260009054906101000a900473ffffffffffffffffffffffffffffffffffffffff1673ffffffffffffffffffffffffffffffffffffffff1663da28bd5c6004546006548460016040518563ffffffff1660e01b815260040180858152602001848152602001838152602001826001811115611add57fe5b60ff168152602001945050505050602060405180830381600087803b158015611b0557600080fd5b505af1158015611b19573d6000803e3d6000fd5b505050506040513d6020811015611b2f57600080fd5b81019080805190602001909291905050506009819055506001600760006101000a81548160ff021916908315150217905550611ed1565b600260009054906101000a900473ffffffffffffffffffffffffffffffffffffffff1673ffffffffffffffffffffffffffffffffffffffff166317aa080c60085460045460006040518463ffffffff1660e01b815260040180848152602001838152602001826001811115611bd757fe5b60ff1681526020019350505050602060405180830381600087803b158015611bfe57600080fd5b505af1158015611c12573d6000803e3d6000fd5b505050506040513d6020811015611c2857600080fd5b810190808051906020019092919050505050600260009054906101000a900473ffffffffffffffffffffffffffffffffffffffff1673ffffffffffffffffffffffffffffffffffffffff166317aa080c60095460045460016040518463ffffffff1660e01b815260040180848152602001838152602001826001811115611cab57fe5b60ff1681526020019350505050602060405180830381600087803b158015611cd257600080fd5b505af1158015611ce6573d6000803e3d6000fd5b505050506040513d6020811015611cfc57600080fd5b810190808051906020019092919050505050600260009054906101000a900473ffffffffffffffffffffffffffffffffffffffff1673ffffffffffffffffffffffffffffffffffffffff1663da28bd5c6004546006548460006040518563ffffffff1660e01b815260040180858152602001848152602001838152602001826001811115611d8657fe5b60ff168152602001945050505050602060405180830381600087803b158015611dae57600080fd5b505af1158015611dc2573d6000803e3d6000fd5b505050506040513d6020811015611dd857600080fd5b8101908080519060200190929190505050600881905550600260009054906101000a900473ffffffffffffffffffffffffffffffffffffffff1673ffffffffffffffffffffffffffffffffffffffff1663da28bd5c6004546006548460016040518563ffffffff1660e01b815260040180858152602001848152602001838152602001826001811115611e6757fe5b60ff168152602001945050505050602060405180830381600087803b158015611e8f57600080fd5b505af1158015611ea3573d6000803e3d6000fd5b505050506040513d6020811015611eb957600080fd5b81019080805190602001909291905050506009819055505b7f7cdb51e9dbbc205231228146c3246e7f914aa6d4a33170e43ecc8e3593481d1a60405180806020018281038252600c8152602001807f6465706f7369746564212121000000000000000000000000000000000000000081525060200191505060405180910390a1505050565b6000611f8083836040805190810160405280601e81526020017f536166654d6174683a207375627472616374696f6e206f766572666c6f77000081525061205c565b905092915050565b6000611fca83836040805190810160405280601a81526020017f536166654d6174683a206469766973696f6e206279207a65726f00000000000081525061211e565b905092915050565b6000808284019050838110151515612052576040517f08c379a000000000000000000000000000000000000000000000000000000000815260040180806020018281038252601b8152602001807f536166654d6174683a206164646974696f6e206f766572666c6f77000000000081525060200191505060405180910390fd5b8091505092915050565b6000838311158290151561210b576040517f08c379a00000000000000000000000000000000000000000000000000000000081526004018080602001828103825283818151815260200191508051906020019080838360005b838110156120d05780820151818401526020810190506120b5565b50505050905090810190601f1680156120fd5780820380516001836020036101000a031916815260200191505b509250505060405180910390fd5b5060008385039050809150509392505050565b6000808311829015156121cc576040517f08c379a00000000000000000000000000000000000000000000000000000000081526004018080602001828103825283818151815260200191508051906020019080838360005b83811015612191578082015181840152602081019050612176565b50505050905090810190601f1680156121be5780820380516001836020036101000a031916815260200191505b509250505060405180910390fd5b50600083858115156121da57fe5b04905080915050939250505056fea165627a7a72305820f73222733f266f6f5a00f9e49bd4233863629bb397e84b83a91fc2289d53f7960029",
  "source": "pragma solidity 0.5.3;\n\nimport './Exc.sol';\n// import \"https://github.com/OpenZeppelin/openzeppelin-contracts/blob/solc-0.6/contracts/math/SafeMath.sol\";\nimport '../contracts/libraries/math/SafeMath.sol';\n\ncontract Pool {\n    \n    /// @notice some parameters for the pool to function correctly, feel free to add more as needed\n    address private tokenP;\n    address private token1;\n    address private dex;\n    bytes32 private tokenPT;\n    bytes32 private token1T;\n    \n    // todo: create wallet data structures\n    uint pineBalance = 0;\n    uint tokenBalance = 0;\n    bool hasrun = false;\n    uint idbuy = 0;\n    uint idsell = 0;\n    \n    // todo: fill in the initialize method, which should simply set the parameters of the contract correctly. To be called once\n    // upon deployment by the factory.\n    function initialize(address _token0, address _token1, address _dex, uint whichP, bytes32 _tickerQ, bytes32 _tickerT)\n    external {\n        dex = _dex;\n\n        if (whichP == 1) {\n            tokenP = _token0;\n            token1 = _token1;\n        } else {\n            tokenP = _token1;\n            token1 = _token0;\n        }\n        tokenPT = _tickerQ;\n        token1T = _tickerT;\n        IExc(dex).addToken(token1T, token1);\n        IExc(dex).addToken(tokenPT, tokenP);\n    }\n    \n    event Debug(string text);\n    \n    // todo: implement wallet functionality and trading functionality\n\n    // todo: implement withdraw and deposit functions so that a single deposit and a single withdraw can unstake\n    // both tokens at the same time\n    function deposit(uint tokenAmount, uint pineAmount) external {\n        pineBalance = Exc(dex).traderBalances(address(this),tokenPT);\n        tokenBalance = Exc(dex).traderBalances(address(this),token1T);\n        pineBalance = SafeMath.add(pineBalance, pineAmount);\n        tokenBalance = SafeMath.add(tokenBalance, tokenAmount);\n        \n        IERC20(token1).transferFrom(msg.sender, address(this), tokenAmount);\n        IERC20(tokenP).transferFrom(msg.sender, address(this), pineAmount);\n        \n        IERC20(token1).approve(dex, tokenAmount);\n        IERC20(tokenP).approve(dex, pineAmount);\n    \n        // IExc(dex).getToken(token1T).approve(dex, tokenAmount);\n        IExc(dex).deposit(tokenAmount, token1T);\n        IExc(dex).deposit(pineAmount, tokenPT);\n        uint aprice = SafeMath.div(pineBalance, tokenBalance);\n        if(hasrun == false){\n            idbuy = IExc(dex).makeLimitOrder(token1T, tokenBalance, aprice, IExc.Side.BUY);\n            idsell = IExc(dex).makeLimitOrder(token1T, tokenBalance, aprice, IExc.Side.SELL);\n            hasrun = true;\n        } else {\n            IExc(dex).deleteLimitOrder(idbuy, token1T, IExc.Side.BUY);\n            IExc(dex).deleteLimitOrder(idsell, token1T, IExc.Side.SELL);\n            idbuy = IExc(dex).makeLimitOrder(token1T, tokenBalance, aprice, IExc.Side.BUY);\n            idsell = IExc(dex).makeLimitOrder(token1T, tokenBalance, aprice, IExc.Side.SELL);\n        }\n        emit Debug(\"deposited!!!\");\n    }\n\n    function withdraw(uint tokenAmount, uint pineAmount) external {\n        pineBalance = Exc(dex).traderBalances(address(this),tokenPT);\n        tokenBalance = Exc(dex).traderBalances(address(this),token1T);\n            if (pineBalance >= pineAmount && tokenBalance >= tokenAmount) {\n                tokenBalance = SafeMath.sub(pineBalance, pineAmount);\n                tokenBalance = SafeMath.sub(tokenBalance, tokenAmount);\n                IERC20(token1).approve(dex, tokenAmount);\n                IERC20(tokenP).approve(dex, pineAmount);\n                // IExc(address(this)).approve(dex, )\n                IExc(dex).withdraw(tokenAmount, token1T);\n                IExc(dex).withdraw(pineAmount, tokenPT);\n        \n                uint aprice = SafeMath.div(pineBalance, tokenBalance);\n                if(hasrun == false){\n                    idbuy = IExc(dex).makeLimitOrder(token1T, tokenBalance, aprice, IExc.Side.BUY);\n                    idsell = IExc(dex).makeLimitOrder(token1T, tokenBalance, aprice, IExc.Side.SELL);\n                    hasrun = true;\n                } else {\n                    IExc(dex).deleteLimitOrder(idbuy, token1T, IExc.Side.BUY);\n                    IExc(dex).deleteLimitOrder(idsell, token1T, IExc.Side.SELL);\n                    idbuy = Exc(dex).makeLimitOrder(token1T, tokenBalance, aprice, IExc.Side.BUY);\n                    idsell = Exc(dex).makeLimitOrder(token1T, tokenBalance, aprice, IExc.Side.SELL);\n                }\n                IERC20(token1).transfer(msg.sender, tokenAmount);\n                IERC20(tokenP).transfer(msg.sender, pineAmount);\n            }\n            emit Debug(\"withdrew!!!\");\n    }\n    \n    \n    function testing(uint testMe) public view returns (uint) {\n        if (testMe == 1) {\n            return 5;\n        } else {\n            return 3;\n        }\n    }\n}",
  "sourcePath": "/Users/naveen/cs1951l/Redwood/contracts/Pool.sol",
  "compiler": {
    "name": "solc",
    "version": "0.5.3+commit.10d17f24.Emscripten.clang"
  },
  "schemaVersion": "3.4.2",
  "updatedAt": "2021-08-07T14:30:23.220Z",
  "devdoc": {
    "methods": {}
  },
  "userdoc": {
    "methods": {}
  }
}